:100000000EC015C014C013C012C011C010C00FC064
:100010000EC00DC00CC00BC00AC009C008C011241E
:100020001FBECFE5D2E0DEBFCDBF0BD05DC0E8CFB5
:10003000BA9AB89ABC9ABB98C39A80E886BD16BC97
:100040000895F6DF80E090E0EFE2F5E73197F1F711
:1000500000C00000C49AEFE9FFE03197F1F700C05B
:10006000000026B3C49823FD19C001968430910581
:10007000BCF1C09AFFEF20E782E0F15020408040C1
:10008000E1F700C00000C0989FEFE7EAF1E6915069
:10009000E040F040E1F700C0000024C0892B11F1DE
:1000A000C09A2FEF80E792E0215080409040E1F726
:1000B00000C00000C098EFEFFAED2AE1E150F040F7
:1000C0002040E1F700C00000C09A8FEF90E7E2E027
:1000D00081509040E040E1F700C00000C09802C0AD
:0C00E000C298B2CFC29AAECFF894FFCF06
:00000001FF
